:100000000C9434000C9449000C9449000C94490061
:100010000C9449000C9449000C9449000C9449003C
:100020000C9449000C9449000C9449000C9449002C
:100030000C9449000C9449000C9449000C9449001C
:100040000C9449000C9449000C946E010C944900E6
:100050000C9449000C9449000C9449000C944900FC
:100060000C9449000C94490011241FBECFEFD8E036
:10007000DEBFCDBF11E0A0E0B1E0E0EAF4E002C0F5
:1000800005900D92A431B107D9F70E941F020C947C
:100090004E020C940000DF93CF9300D000D00F925B
:1000A000CDB7DEB769837A838B839C8389819A81FC
:1000B000AB81BC8125E731E040E050E0BC01CD01DF
:1000C0000E942F02DC01CB0189839A83AB83BC831E
:1000D0001D8289819A81AB81BC810097A105B10500
:1000E00011F081E08D8389819A81AB81BC81019778
:1000F000A109B10989839A83AB83BC838D8188234D
:1001000039F70F900F900F900F900F90CF91DF91D4
:100110000895DF93CF93CDB7DEB7E4ECF0E087E648
:100120008083E5ECF0E01082A1ECB0E0E1ECF0E0DF
:10013000808188618C93A2ECB0E0E2ECF0E08081F9
:1001400086608C93A1ECB0E0E1ECF0E08081806807
:100150008C93CF91DF910895DF93CF930F92CDB71A
:10016000DEB78983E0ECF0E08081882F90E0807238
:1001700090700097B9F3E6ECF0E0898180830F90EE
:10018000CF91DF910895DF93CF9300D00F92CDB739
:10019000DEB79B838A83198210C08981282F30E0C3
:1001A0008A819B81FC01E20FF31F8081982F898156
:1001B0008F5F8983892F0E94AC008981282F30E0CE
:1001C0008A819B81FC01E20FF31F8081882329F73C
:1001D0000F900F900F90CF91DF910895DF93CF9301
:1001E000CDB7DEB7E0ECF0E080818823DCF7E6EC09
:1001F000F0E08081CF91DF9108950F931F93DF93FB
:10020000CF9300D000D0CDB7DEB79B838A8319820D
:100210008981282F30E08A819B818C01020F131F76
:100220000E94EE00F80180838981282F30E08A81C6
:100230009B81FC01E20FF31F80811C828A3011F048
:10024000F1E0FC8389818F5F89838C81882301F7AA
:100250008981882F90E09C01215030408A819B81C8
:10026000FC01E20FF31F10820F900F900F900F9080
:10027000CF91DF911F910F910895DF93CF9300D01D
:100280000F92CDB7DEB79B838A83198210C0898114
:10029000282F30E08A819B81FC01E20FF31F8081CF
:1002A000982F89818F5F8983892F0E94AC00898173
:1002B000282F30E08A819B81FC01E20FF31F8081AF
:1002C000882329F78DE00E94AC008AE00E94AC00F0
:1002D0000F900F900F90CF91DF9108951F920F9282
:1002E0000FB60F9211242F933F934F935F936F9309
:1002F0007F938F939F93AF93BF93EF93FF93DF937E
:10030000CF9300D00F92CDB7DEB7EFE5F0E080815C
:100310008B83F89480E091E00E94FD0080910001C1
:10032000843409F076C087E090E09A83898330C0F6
:1003300089819A810296FC01E050FF4F80818133D0
:1003400089F4AAE2B0E0EAE2F0E08081282F81E0BF
:1003500090E0098002C0880F991F0A94E2F7822B6F
:100360008C9311C0AAE2B0E0EAE2F0E08081282F8D
:1003700081E090E0098002C0880F991F0A94E2F79B
:10038000809582238C9389819A8101979A838983AE
:1003900089819A81992364F61A82198235C022E1F3
:1003A00030E089819A81A901481B590BCA01FC01DF
:1003B000E050FF4F8081813389F4ABE2B0E0EBE2A3
:1003C000F0E08081282F81E090E0098002C0880F52
:1003D000991F0A94E2F7822B8C9311C0ABE2B0E034
:1003E000EBE2F0E08081282F81E090E0098002C0FC
:1003F000880F991F0A94E2F7809582238C93898154
:100400009A8101969A83898389819A81883091059E
:1004100034F20F900F900F90CF91DF91FF91EF91F9
:10042000BF91AF919F918F917F916F915F914F910C
:100430003F912F910F900FBE0F901F901895DF9353
:10044000CF93CDB7DEB7EAE2F0E08FEF8083EBE247
:10045000F0E08FEF80830E9489007894FFCF629F45
:10046000D001739FF001829FE00DF11D649FE00DAC
:10047000F11D929FF00D839FF00D749FF00D659F0D
:10048000F00D9927729FB00DE11DF91F639FB00D0C
:10049000E11DF91FBD01CF0111240895F894FFCF8C
:1004A000000000000000000000000000000000004C
:0404B0000000000048
:00000001FF
