:100000000C9434000C9451000C9451000C94510049
:100010000C9451000C9451000C9451000C9451001C
:100020000C9451000C9451000C9451000C9451000C
:100030000C9451000C9451000C9451000C945100FC
:100040000C9451000C9451000C9453000C945100EA
:100050000C9451000C9451000C9451000C945100DC
:100060000C9451000C94510011241FBECFEFD8E026
:10007000DEBFCDBF11E0A0E0B1E0E6E8F5E002C0F0
:1000800005900D92A231B107D9F711E0A2E1B1E0DC
:1000900001C01D92A331B107E1F70E948D000C94BD
:1000A000C1020C9400001F920F920FB60F92112400
:1000B0002F933F934F935F936F937F938F939F9370
:1000C000AF93BF93EF93FF93DF93CF930F92CDB78F
:1000D000DEB7EFE5F0E080818983F89480E091E07D
:1000E0000E94EC0181E080931201EFE5F0E089814C
:1000F00080830F90CF91DF91FF91EF91BF91AF91EE
:100100009F918F917F916F915F914F913F912F912F
:100110000F900FBE0F901F901895DF93CF93CDB720
:10012000DEB72E970FB6F894DEBF0FBECDBFEAE262
:10013000F0E080E480830E9478010E945F0178945F
:10014000A5E4B0E0E5E4F0E0808181608C93E4E434
:10015000F0E083E88083E7E4F0E08FE780831A82B1
:100160001982CE0103969B878A87EAE0F1E0FD873A
:10017000EC87F7E0FE87EC85FD8500808C859D850A
:1001800001969D878C87EA85FB8500828A859B8501
:1001900001969B878A879E8591509E87EE85EE23E8
:1001A00051F7809112018823E1F30E942C019A8378
:1001B000898389819A819E012D5F3F4FB9014AE071
:1001C00050E00E947C02CE0103960E942C0264E65D
:1001D00070E080E090E00E94EE00E3CFDF93CF93E9
:1001E00000D000D00F92CDB7DEB769837A838B83BE
:1001F0009C8389819A81AB81BC8125E731E040E015
:1002000050E0BC01CD010E945D02DC01CB0189837D
:100210009A83AB83BC831D8289819A81AB81BC8127
:100220000097A105B10511F081E08D8389819A8144
:10023000AB81BC810197A109B10989839A83AB8302
:10024000BC838D81882339F70F900F900F900F900A
:100250000F90CF91DF910895DF93CF9300D0CDB76A
:10026000DEB71A821982AAE7B0E0EAE7F0E08081FF
:1002700080648C93EAE7F0E08081882F90E08074BE
:1002800090700097B9F7E8E7F0E08081882F90E060
:100290009A838983E9E7F0E08081882F90E0982FA6
:1002A00088279C0189819A81820F931F9A83898371
:1002B00089819A810F900F90CF91DF910895DF93FC
:1002C000CF93CDB7DEB7ECE7F0E080E48083AAE718
:1002D000B0E0EAE7F0E0808187608C93AAE7B0E0C5
:1002E000EAE7F0E0808180688C93CF91DF910895F8
:1002F000DF93CF93CDB7DEB7E4ECF0E087E6808301
:10030000E5ECF0E01082A1ECB0E0E1ECF0E08081FF
:1003100088618C93A2ECB0E0E2ECF0E08081866032
:100320008C93A1ECB0E0E1ECF0E0808180688C93EC
:10033000CF91DF910895DF93CF930F92CDB7DEB7C2
:100340008983E0ECF0E08081882F90E080729070EB
:100350000097B9F3E6ECF0E0898180830F90CF91AC
:10036000DF910895DF93CF9300D00F92CDB7DEB722
:100370009B838A83198210C08981282F30E08A816B
:100380009B81FC01E20FF31F8081982F89818F5F91
:100390008983892F0E949B018981282F30E08A81DF
:1003A0009B81FC01E20FF31F8081882329F70F90C6
:1003B0000F900F90CF91DF910895DF93CF93CDB73A
:1003C000DEB7E0ECF0E080818823DCF7E6ECF0E0DB
:1003D0008081CF91DF9108950F931F93DF93CF9387
:1003E00000D000D0CDB7DEB79B838A831982898184
:1003F000282F30E08A819B818C01020F131F0E94FD
:10040000DD01F80180838981282F30E08A819B817A
:10041000FC01E20FF31F80811C828A3011F0F1E0B1
:10042000FC8389818F5F89838C81882301F789818F
:10043000882F90E09C01215030408A819B81FC01F3
:10044000E20FF31F10820F900F900F900F90CF913B
:10045000DF911F910F910895DF93CF9300D00F92FA
:10046000CDB7DEB79B838A83198210C08981282F7C
:1004700030E08A819B81FC01E20FF31F8081982F7D
:1004800089818F5F8983892F0E949B018981282F11
:1004900030E08A819B81FC01E20FF31F8081882379
:1004A00029F78DE00E949B018AE00E949B010F903A
:1004B0000F900F90CF91DF910895629FD001739FAD
:1004C000F001829FE00DF11D649FE00DF11D929FF0
:1004D000F00D839FF00D749FF00D659FF00D99272F
:1004E000729FB00DE11DF91F639FB00DE11DF91F53
:1004F000BD01CF0111240895FB019F01E894423012
:10050000C4F04532B4F44A3029F497FB1EF49095B8
:1005100081959F4F642F77270E94AD02805D8A33BB
:100520000CF0895D8193CB010097A1F716F45DE291
:1005300051931082C9010C949D02DC01FC01672FCC
:1005400071917723E1F7329704C07C916D937083AA
:100550006291AE17BF07C8F30895AA1BBB1B51E1F8
:1005600007C0AA1FBB1FA617B70710F0A61BB70B23
:10057000881F991F5A95A9F780959095BC01CD01C8
:060580000895F894FFCF7E
:100586000000000000000000000048616C6C6F6F06
:02059600000063
:00000001FF
